:03000000020AC928
:0C0AC900787FE4F6D8FD758128020B1040
:100EB20057656C636F6D6520746F204141554353D4
:070EC200004E302E3032001B
:06000300012000012800AD
:100F3000C292C290D291D292AF80EF20E7F2C292D9
:010F4000228E
:0D0CF1007F0A7E00120CFED2927F0A7E0068
:100CFE00D3EF9400EE940040147D6E7C00ED1D70D9
:0D0D0E00011CED4C70F7EF1F70E61E80E336
:010D1B0022B5
:100F4100AE07120F30C290C2918E80120CF1C29284
:010F5100227D
:100CBD007FC2120CDDE5162430FD7FC3120CDDE57D
:100CCD00182430FD7FC4120CDDE51A2430FD7FC6DB
:100CDD00AB05120F41120F30D290C2918B80120CC6
:040CED00F1C292229C
:100D1C008F098B0A8A0B890CAB0AAA0BA90C12033C
:100D2C00666017AF090509050CE50C7002050B147C
:0B0D3C00F9120366FD120CDD80DE22C0
:100EC900C2927F38120F417F0C120F417F04120F1B
:060ED900417F01020F4100
:100E7C007DFAD3EF9400EE9400400FDDFE7DF9DD9A
:0A0E8C00FE7DFAEF1F70EB1E80E8F8
:010E96002239
:060F800000000000002249
:040F1E007F017E00D1
:0D0F2200EFD3940040077E6EDEFE1F80F3CB
:010F2F00229F
:100D6F007F147E147D6420B703751C0120B60375B4
:100D7F001D0120B503751E0120B403751F01DDE6AB
:040D8F00DEE2DFDEE3
:010D9300223D
:100C1600E4F508120EC97BFF7A0E79B27F80120DB9
:100C26001C7BFF7A0E79C37FC0120D1C7FE87E0302
:100C3600120F22E508C3941050107F1C120F417F3B
:0A0C4600647E00120E7C050880E9B0
:010C50002281
:100B5500120EC97D547FC0120CDD7D3A7FC1120C87
:100B6500DD7D2E7FC5120CDD7DDF7FC7120CDD7D9F
:100B7500437FC8120CDD7D467FCA120CDD7D417FA7
:100B8500CB120CDD7D4E7FCC120CDD7D3A7FCD1274
:100B95000CDD7D487F80120CDD7D3A7F81120CDDF6
:100BA5007DDF7F85120CDD7D437F86120CDD7D4C5C
:100BB5007F89120CDD7D3A7F8A120CDD7DDF7F8E09
:0A0BC500120CDD7D437F8F020CDD72
:100F0A00D297120F80D296120F80C297120F80C208
:040F1A0096020F80AC
:0D0F6100C297120F80D296120F80D29722F5
:0B0E2100120D47120E2CAF05120D47FA
:100E2C00E4FF30970C0FEFD394C840F6C296020F34
:040E3C0061C296D326
:010E4000228F
:100D4700E4FEEF30E704D2978002C297EF25E0FF79
:100D5700D296120F80C296120F800EBE08E4D2966A
:080D6700120F80D297020F80E9
:100D9400C296120F80D297120F80E4FED296120FE1
:100DA40080EF25E0FFA297E4334207C296120F803A
:040DB4000EBE08E87F
:010DB8002218
:020E9700AD07A5
:100E9900120F0A7FA0120E21120F0A7FA1120D470D
:090EA900120E2C120D94020F61CF
:100EF500AC07120F0A7FA0120D47120E2CAF041279
:050F05000E21020F6146
:10074D00AA07C3EA648094E4403AEA75F0641203A0
:10075D00442430FD7F82120CDDEA75F00A12034449
:10076D00FF75F00A120344AFF0EF2430FD7F8312C2
:10077D000CDDEA75F00A120344AFF0EF2430FD7F73
:10078D0084120CDDD3EA6480948A402FEA6480944D
:10079D00E450287DFE7F82120CDDEA75F00A12030B
:1007AD00442430FD7F83120CDDEA75F00A120344F8
:1007BD00AFF0EF2430FD7F84120CDDC3EA6480942A
:1007CD0080401EEA6480948A50177DFE7F82120C51
:1007DD00DD7DFE7F83120CDDEA2430FD7F84120C5B
:1007ED00DDC3EA64809480501FEA648094764018DB
:1007FD007D2D7F82120CDD7DFE7F83120CDDEAF4F0
:10080D002431FD7F84120CDDD3EA64809476504E42
:10081D007D2D7F82120CDDEAFF3395E0FEEFF4FFB4
:10082D00EEF4FEEF2401FFE43EFE7C007D0A120390
:10083D00D4EF2430FD7F83120CDDAF02EF3395E052
:10084D00FEEFF4FFEEF4FEEF2401FFE43EFE7C002C
:0F085D007D0A1203D4ED2430FD7F84120CDD22BE
:10086C00AA07C3EA648094E4403AEA75F064120380
:10087C00442430FD7F8B120CDDEA75F00A12034420
:10088C00FF75F00A120344AFF0EF2430FD7F8C1299
:10089C000CDDEA75F00A120344AFF0EF2430FD7F53
:1008AC008D120CDDD3EA6480948A402FEA64809424
:1008BC00E450287DFE7F8B120CDDEA75F00A1203E2
:1008CC00442430FD7F8C120CDDEA75F00A120344CF
:1008DC00AFF0EF2430FD7F8D120CDDC3EA64809401
:1008EC0080401EEA6480948A50177DFE7F8B120C28
:1008FC00DD7DFE7F8C120CDDEA2430FD7F8D120C29
:10090C00DDC3EA64809480501FEA648094764018BA
:10091C007D2D7F8B120CDD7DFE7F8C120CDDEAF4BD
:10092C002431FD7F8D120CDDD3EA64809476504E19
:10093C007D2D7F8B120CDDEAFF3395E0FEEFF4FF8B
:10094C00EEF4FEEF2401FFE43EFE7C007D0A120370
:10095C00D4EF2430FD7F8C120CDDAF02EF3395E029
:10096C00FEEFF4FFEEF4FEEF2401FFE43EFE7C000C
:0F097C007D0A1203D4ED2430FD7F8D120CDD2295
:10062000E4F51CF51DF51EF51F30B704E51C60222E
:10063000120F1E30B704E51C6018E5207002800F11
:10064000E520B401057520028008E520B402037599
:10065000200130B604E51D6041120F1E30B604E5DE
:100660001D6037E520B40119AF23EF3395E0FEC3D9
:10067000EF9480EE6480948050020523AF2312072C
:100680004DE520B40214C3E5236480F8E5226480BC
:100690009850020522AF2212086C30B504E51E60A6
:1006A00038120F1E30B504E51E602EE520B401148B
:1006B000D3E5226480F8E52364809840021523AFD7
:1006C0002312074DE520B40210D3E522648094493B
:1006D00040021522AF2212086C30B404E51F6022DC
:1006E000120F1E30B404E51F6018AD23E4FF120E94
:1006F000F57F0F7E00120F22AD227F01120EF5E46E
:10070000F520E520B40120120D6F7D117F82120CBF
:10071000DD7D117F83120CDD7D117F84120CDD12D3
:100720000D6FAF2312074DE520B40220120D6F7D2F
:10073000117F8B120CDD7D117F8C120CDD7D117F02
:0D0740008D120CDD120D6FAF2212086C221D
:060F8600000000DFFB2269
:100EDF00E4F517C2957F78120F86D2957F10120F07
:060EEF00867F50020F8611
:100E0000E4FD7E08C2957F01120F86D295EDC313D3
:100E1000FD3095034305807F0B120F86DEE6AF059C
:010E200022AF
:020E5F00AE07DC
:100E61007D08C295EE1392957F0C120F86D295EEF6
:0A0E7100C313FE7F05120F86DDE8B3
:010E7B002254
:100A3A00E4F516F515F514F513120EDF7FCC120E38
:100A4A005F7F44120E5F120EDF7FCC120E5F7FBEF5
:100A5A00120E5F120E00AC07120E007511008F12F3
:100A6A00E512751200F511AF04EF4212C3E51294B4
:100A7A0090E51194FC402B751B01E512F4FFE5117A
:100A8A00F4FEEF2401FDE43EFCE412028AE4FBFAE0
:100A9A007980783D120106E4FBFAF9783F120015D5
:100AAA008014E4F51BAC11AD1212028AE4FBFA7948
:0E0ABA0080783D1201068F168E158D148C1358
:010AC800220B
:080418008F148E138D128C115C
:10042000E4FFFE7D207C41AB14AA13A912A811128F
:1004300001061202C38F828E83E51B6401600302F2
:1004400004F8E5824583701C7DFE7FC2120CDD7DC1
:10045000FE7FC3120CDD7D307FC4120CDD7D307F4A
:10046000C6120CDDC3E5829464E58394005045E533
:10047000829400E5839400403B7C007D0AAF82AE0D
:100480008312037F8E158F167C007D0AAF82AE83A8
:1004900012037F8C178D187DFE7FC2120CDD7D2D1F
:1004A0007FC3120CDDE5162430FD7FC4120CDDE5A0
:1004B00018120CD8C3E5829464E583940040397C1B
:1004C000007D64AF82AE8312037F8E158F167C0091
:1004D0007D0AAF82AE8312037F7C007D0A12037F08
:1004E0008C178D187C007D0AAF82AE8312037F8C3F
:1004F000198D1A7D2D120CBDE51B600302061FC36A
:10050000E5829464E5839400503B7C007D0AAF82D1
:10051000AE8312037F8E158F167C007D0AAF82AEEC
:100520008312037F8C178D187DFE7FC2120CDD7D38
:10053000FE7FC3120CDDE5162430FD7FC4120CDDF6
:10054000E518120CD8C3E5829464E5839400404317
:10055000E58294E8E583940350397C007D64AF82A2
:10056000AE8312037F8E158F167C007D0AAF82AE9C
:100570008312037F7C007D0A12037F8C178D187C09
:10058000007D0AAF82AE8312037F8C198D1A7DFE27
:10059000120CBDC3E58294E8E58394035003020680
:1005A0001FD3E5829400E583940550737C037DE8B6
:1005B000AF82AE8312037F8E158F167C007D64AFF1
:1005C00082AE8312037F7C007D0A12037F8C178D1D
:1005D000187C007D64AF82AE8312037FAA04AB0552
:1005E0007D0A7C00AF03AE0212037F8E198F1A7D45
:1005F0000A7C00AF03AE0212037F8D82E516243021
:10060000FD7FC2120CDDE5182430FD7FC3120CDD26
:0F061000E51A2430FD7FC4120CDDE582120CD8F0
:01061F0022B8
:10098B00120A3A8F108E0F8D0E8C0D120418E4FF85
:10099B00120E978F257F01120E978F24AC25EC1228
:1009AB00028FAB10AA0FA90EA80D12020C600250F9
:1009BB0022E4F521AC24EC12028FAB10AA0FA90E86
:1009CB00A80D12020C5006C2A3C2948055D2A3D21A
:1009DB0094804FC294AF25EF3395E0FEEF2402FDD8
:1009EB00E43EFC12028AAB10AA0FA90EA80D12024C
:1009FB000C600250057521018028AF25EF3395E07F
:100A0B00FEEF2404FDE43EFC12028AAB10AA0FA9F0
:100A1B000EA80D12020C60025005752102800375A1
:0E0A2B002103E5212430FD7FCE120CDDAF212A
:010A3900229A
:0F0F5200758CFF758A380527E527700205262262
:100C5100E52864016003D28C22D3E5279405E526BB
:100C61009400400DD3E527940AE52694005002C272
:100C7100A7D3E527940AE526940040D4D2A7752688
:060C81000075270180CA86
:100C8700E52864026003C28C22D3E5279408E52691
:100C97009400400DD3E527940AE52694005002C23C
:100CA700A7D3E527940AE526940040D4D2A7752652
:060CB7000075270180CA50
:090F6E00E528640360FAC28C223C
:090F7700C2A7E52860FCC28C222F
:100DB9007E00AF28E5287003020F77E528B4010308
:100DC900020C51E528B40203020C87E528B4030399
:040DD900120F6E2265
:100E4100D2AFD2A9758901D2A7D28C752600752798
:0E0E510001758CFF758A38AF287E00020DB93E
:100DDD00120C16120B55E4FF120E978F237F011282
:100DED000E978F22AF2312074DAF2212086C120EF1
:030DFD004180FB37
:03000B00020BCF16
:100BCF00C0E0C0F0C083C082C0D075D000C000C0EC
:100BDF0001C002C003C004C005C006C007C28C120A
:100BEF000F5212098B8F28120620D28CD007D006F5
:100BFF00D005D004D003D002D001D000D0D0D08205
:070C0F00D083D0F0D0E032E9
:10000E0002032FE86480F8E933E83360110460F0EE
:10001E00ED33EC337009E8FCE9FDEAFEEBFF220458
:10002E0060DED3EB9FEA9EE99DE8C2E78CF0C2F753
:10003E0095F0400CE8CCF8E9CDF9EACEFAEBCFFB1F
:10004E001202FA85D0F05804700320D5B3E804707C
:10005E00075002B2D502033992D5EC0460F7E4CC16
:10006E00C0E0C398F8603B94186008400DD0E0FBE8
:10007E00020311E4FBFAC9FC8028E830E406E4C967
:10008E00FBE4CAFCE830E305E4C9CACBFCE854073C
:10009E006010F8C3E913F9EA13FAEB13FBEC13FC47
:1000AE00D8F130F52FC3E49CFCEF9BFFEE9AFEEDEA
:1000BE0099FDD0E0FBEF4E4D4C701222DB03020394
:1000CE0036EC2CFCEF33FFEE33FEED33FDED30E777
:1000DE00EB020311EF2BFFEE3AFEED39FDD0E0FB04
:1000EE0050130BBB0003020339ED13FDEE13FEEFAD
:0800FE0013FFEC13FC020311D7
:10010600EC4D6011E8497017ED33EC3304600DE4F3
:10011600FCFFFEFD22E933E8330470F802032F12D8
:1001260002FA58046009E4CC2481500628500902DA
:100136000339284003020336C0E0EB4A7044B98015
:1001460006D0E0FB020325EF4E701CBD8008EBFFD6
:10015600EAFEE9FD80EBE98DF0A4FEE5F00201EF91
:10016600E9CDF9EAFEEBFFEF89F0A4FCE5F0CE89D4
:10017600F0A42EFFE435F0CD89F0A42DFEE435F091
:100186008067EF4E7005BD80D780C3EF8BF0A4ACBF
:10019600F0EE8BF0A42CFCE435F0F8EF8AF0A42CFA
:1001A600E5F038FCE433CB8DF0A42CFCE5F03BF80D
:1001B600EE8AF0A42CFCE5F038F8E433CF89F0A4FD
:1001C6002CFCE5F038CF3400CE89F0A42FFFE5F003
:1001D6003EFEE433C98DF0A42EFEE5F039CD8AF05B
:1001E600A42FFFE5F03EFEE43DFD33D0E0FB5007D3
:1001F6000BBB000F020339EC2CFCEF33FFEE33FE92
:06020600ED33FD020311BF
:10020C0074F8CC6480CCC86480C8F58204604FC399
:10021C00EB9FF5F0EA9E42F0E99D42F0E89C45F038
:10022C00603C501DE5825FFFE582D313CB5BCBF4C2
:10023C002B5582FB50280ABA002409B900200880EB
:10024C001DE5825BFBE582D313CF5FCFF4C3132F85
:10025C005582FF50090EBE00050DBD00010CC3EB0D
:10026C009FF5F0EA9E42F0E99D42F0E89C45F06073
:09027C0007CC4820E701B3EC2295
:1002850075F020800E75F010800575F0087D007EF4
:10029500007F003392D530D50312040AEC334010A9
:1002A500EF33FFEE33FEED33FDEC33FCD5F0ED22FD
:0E02B500E5F0247EA2D513CC92E7CDCEFF2239
:1002C300EDD2E7CD33EC3392D524814006E4FFFE33
:1002D300FDFC22FCE4CFCECDCC24E0501174FF8092
:1002E300EDC3CC13CCCD13CDCE13CECF13CF04702F
:0702F300F030D5DE02040A21
:1002FA00E9D2E7C933E833F892D5EDD2E7CD33EC4A
:07030A0033FC5002B2D522C2
:10031100EC30E7100FBF000C0EBE00080DBD00044D
:100321000BEB6014A2D5EB13FCED92E7FD2274FFF9
:10033100FCFDFEFF22E480F8A2D574FF13FC7D8052
:03034100E480EF66
:100AD500020DDDE493A3F8E493A34003F68001F24D
:100AE50008DFF48029E493A3F85407240CC8C33322
:100AF500C4540F4420C8834004F456800146F6DFF1
:100B0500E4800B0102040810204080900003E47E7D
:100B1500019360BCA3FF543F30E509541FFEE493E5
:100B2500A360010ECF54C025E060A840B8E493A3AC
:100B3500FAE493A3F8E493A3C8C582C8CAC583CAD7
:100B4500F0A3C8C582C8CAC583CADFE9DEE780BE8F
:0100090000F6
:10034400C2D530F707B2D563F0FF05F030E70CB241
:10035400D5F4048463F0FF05F080018430D502F401
:02036400042271
:10036600BB010689828A83E0225002E722BBFE0295
:09037600E32289828A83E49322C8
:10037F00BC000BBE0029EF8DF084FFADF022E4CC62
:10038F00F875F008EF2FFFEE33FEEC33FCEE9DEC2B
:10039F00984005FCEE9DFE0FD5F0E9E4CEFD22ED71
:1003AF00F8F5F0EE8420D21CFEADF075F008EF2FBB
:1003BF00FFED33FD4007985006D5F0F222C398FDAC
:0503CF000FD5F0EA2249
:1003D400C2D5EC30E709B2D5E4C39DFDE49CFCEE44
:1003E40030E715B2D5E4C39FFFE49EFE12037FC33A
:1003F400E49DFDE49CFC800312037F30D507C3E435
:060404009FFFE49EFE22B2
:0E040A00C3E49FFFE49EFEE49DFDE49CFC2203
:00000001FF
